:02000002B0004C
:1040000000400B0052530B00000006000C0005029C
:084010000401B41400000000DB
:0440180078500B00D1
:10401C00034613F8012B002AFBD1181A01387047FC
:10402C0009480A49884208B505D0094A824202D09B
:10403C00121A00F071FF0748074A0021121A00F00B
:10404C0079FF014808BD00BFA8E50320B8520B005A
:10405C0014E6032014E60320F0E7032070B5074EA6
:10406C00074C00F051FEA41BA4080025AC4200D163
:10407C0070BD56F8043B98470135F7E770520B00BA
:10408C0094520B0000F026B808B500F04BF8BDE8D0
:10409C00084000F0F1BD00F01DBA00F023BA007822
:1040AC00B0FA80F04009704701230370704700009C
:1040BC0010B500F05BFD054904460A2200F053FCE4
:1040CC002046BDE8104000F042BC00BF5450555291
:1040DC00FFF7EEBF13B500F049FD0F4900F03AFDB4
:1040EC000021092000F080FE002400210A2000F0AD
:1040FC007BFE2246094900944FF0FF33092000F063
:10410C009FFA074900944FF0FF3322460A2000F033
:10411C0097FA02B010BD00BF90D00300BD400B0059
:10412C00DD400B004FF47A7000F0F4B910B500F0DC
:10413C00C7FEBDE81040014613230248122200F0CE
:10414C0003B800BF14E60320F8B5044600251F464B
:10415C004FF0FF3316462360A38008462163A571F8
:10416C00A581A573E563E564E565E566E567C4F8D7
:10417C008C50C4F89C504FF4165100F095FC70B262
:10418C0020712946E77080B200F02EFE94F90300EE
:10419C00294680B200F028FE2046F8BD08B5024B37
:1041AC001B685B6C019308BD4802030008B5024B09
:1041BC001B685B68019308BD1802030008B5024B2D
:1041CC001B685B69019308BD1802030008B5024B1C
:1041DC001B689B68019308BD2C02030008B5024BB9
:1041EC001B689B69019308BD2C02030008B5024BA8
:1041FC001B68DB69019308BD2C02030008B5024B58
:10420C001B681B6A019308BD2802030008B5024B0A
:10421C001B685B6A019308BD2802030008B5024BBA
:10422C001B689B6A019308BD2802030008B5024B6A
:10423C001B68DB6A019308BD2802030008B5024B1A
:10424C001B681B6B019308BD2802030008B5024BC9
:10425C001B685B6B019308BD2802030008B5024B79
:10426C001B681B6C019308BD2802030008B5024BA8
:10427C001B685B69019308BD6402030008B5024B1F
:10428C001B689B68019308BD6802030008B5024BCC
:10429C001B68DB68019308BD6802030008B5024B7C
:1042AC001B68DB69019308BD3002030008B5024BA3
:1042BC001B681B6A019308BD3002030008B5024B52
:1042CC001B68DB68019308BD3C02030008B5024B78
:1042DC001B681B69019308BD3C02030008B5024B27
:1042EC001B685B69019308BD3C02030008B5024BD7
:1042FC001B689B69019308BD3C02030008B5024B87
:10430C001B68DB69019308BD3C02030008B5024B36
:10431C001B681B6A019308BD3C02030008B5024BE5
:10432C001B689B6A019308BD3C02030008B5024B55
:10433C001B68DB6A019308BD3C02030008B5024B05
:10434C001B681B6C019308BD3C02030008B5024BB3
:10435C001B681B68019308BD4C02030008B5024B97
:10436C001B685B68019308BD4C02030008B5024B47
:10437C001B681B69019308BD4C02030008B5024B76
:10438C001B685B69019308BD4C02030008B5024B26
:10439C001B689B69019308BD4C02030008B5024BD6
:1043AC001B68DB69019308BD4C02030008B5024B86
:1043BC001B681B6A019308BD4C02030008B5024B35
:1043CC001B685B68019308BD2002030008B5024B13
:1043DC001B685B69019308BD2002030008B5034B01
:1043EC001B68D3F88830019308BD0000200203003D
:1043FC0008B5034B1B68D3F89430019308BD00003B
:10440C002002030008B5024B1B68DB6B019308BD4F
:10441C004402030008B5024B1B685B68019308BD9E
:10442C004002030008B5024B1B689B68019308BD52
:10443C004002030008B5024B1B68DB68019308BD02
:10444C004002030008B5024B1B681B69019308BDB1
:10445C004002030008B5024B1B685B69019308BD61
:10446C004002030008B5024B1B689B69019308BD11
:10447C004002030008B5024B1B68DB69019308BDC1
:10448C004002030008B5024B1B681B6A019308BD70
:10449C004002030008B5024B1B681B6B019308BD5F
:1044AC004002030008B5024B1B685B6B019308BD0F
:1044BC004002030008B5024B1B681B6C019308BD3E
:1044CC004002030008B5024B1B685B6C019308BDEE
:1044DC004002030008B5024B1B681B68019308BD22
:1044EC001C02030008B5024B1B685B68019308BDF6
:1044FC001C02030008B5024B1B681B6C019308BD22
:10450C001C02030008B5024B1B685B6C019308BDD1
:10451C001C0203000021FFF759BF000002480023D2
:10452C000360FFF73BBE00BFB8E6032000224068E3
:10453C001146FFF7A7BF002240681146FFF7B2BF34
:10454C0040680022FFF7A6BF4068002281F00101FD
:10455C00FFF790BF002340681A461946FFF782BF49
:10456C00002340681A461946FFF774BF00224068C2
:10457C001146FFF767BF002240681146FFF752BF94
:10458C00406800220221FFF755BF002340681A46FD
:10459C00FFF740BF024B03225A60024A1A60704771
:1045AC00BCE6032094500B007047F8B50646154640
:1045BC000C468F18BC4206D0336814F8011B9B685C
:1045CC0030469847F6E72846F8BD007C0022FFF7F6
:1045DC0015BE007C0021FFF719BE007C0021FFF7FF
:1045EC001DBE007C0021FFF721BE007C0021FFF7DF
:1045FC0025BE10B514210446FFF74FFD204610BD13
:10460C0038B5044615464FF47A730022C4E90123E9
:10461C00094B2174084623602946FFF71FFEBF3063
:10462C0008D16B69DB0705D56868FFF75BFFE868A5
:10463C00FFF758FF204638BDD0500B000047000054
:10464C002DE9FF4100241D460F4690460646FFF714
:10465C00CDFDA5424FF00403ADF80D408DF80C30A4
:10466C008DF80F40A2BF9DF828308DF80E3003ACAA
:10467C000749009443463A463046A8BF8DF80D5082
:10468C00FFF7ACFDB0FA80F0400904B0BDE8F08152
:10469C0049460B00704710B518210446FFF7FDFC86
:1046AC00204610BDF0B5037D062B8DB00E4600F1F3
:1046BC0004074FF0000412D000F1080515F8011D95
:1046CC000A22304600F04FF9AF42044419D0002CB6
:1046DC00F4D02E21304600F037F90444EEE72F23B6
:1046EC006A4639460A208DF80040FFF7BFFD684640
:1046FC00FFF78EFC33680246DB6869463046984704
:10470C00044620460DB0F0BD10B5054B04461122F1
:10471C0040F8043B002100F00DFC204610BD00BF0A
:10472C00F8500B000346074A10B543F8042B01F16F
:10473C00100251F8044B43F8044B9142F9D10A781A
:10474C001A7010BDF8500B0010B59DF8084044EAE3
:10475C00032343EA024242EA0161042341600375E8
:10476C0010BD000007B5064B0360CB7800938B7827
:10477C004A780978FFF7E8FF03B05DF804FB00BF47
:10478C00F8500B00014B024A1A607047C4E6032034
:10479C0004510B00002340681A46FFF73BBE4068EB
:1047AC0000220221FFF746BE002240681146FFF7A7
:1047BC0039BE002240681146FFF744BE0023406812
:1047CC001A461946FFF746BE002340681A4619469A
:1047DC00FFF748BE40680021FFF76CBE406800211F
:1047EC00FFF770BE4068002281F00101FFF742BE66
:1047FC0040680022FFF74EBE002240681146FFF7CA
:10480C0051BE002240681146FFF73CBE2DE9F04333
:10481C0095B014460D460746FFF776FF00211C2283
:10482C000DA8009100F086FB40230C9320466B46AC
:10483C000CAA0021FFF72AFD044600284BD10246A2
:10484C0001216868FFF7FEFD022180462246686858
:10485C00FFF7F8FD009E81462146002E3BD0002933
:10486C0039D17368022B03D00A2B11D0F669F4E707
:10487C00B8F1000FFAD0716906A8043107ADFFF743
:10488C0071FF0FCD3C1D0FC42B6823704146EDE723
:10489C00B9F1000FEAD07469102201A800F04AFBAC
:1048AC0006238DF8143001AD04F108031834186890
:1048BC0059682A4603C20833A3421546F7D101A909
:1048CC0006A807ADFFF72EFF0FCD3C1D0FC42B68BC
:1048DC0023704946CAE70098FFF7D0FC384615B05C
:1048EC00BDE8F083024B034A1A6000225A607047FD
:1048FC00C8E6032010510B00F8B506460D468F187C
:10490C000024BD420CD0336815F8011B9B6830465F
:10491C009847031E01DB1C44F3E7002C08BF1C4620
:10492C002046F8BD13B50446084659B10191FFF76E
:10493C006FFB23680199DB680246204602B0BDE894
:10494C001040184702B010BD03689B68184738B573
:10495C000D210546FFF7F8FF0A2104462846FFF70C
:10496C00F3FF204438BD30B58BB00023012A8DF8FD
:10497C00243098BF0A2209AC0D46B1FBF2F101FBC1
:10498C00125303F0FF03092B94BF30333733DBB2E0
:10499C00AA4204F8013DEFD92146FFF7C3FF0BB043
:1049AC0030BD0000014B00229A607047D0E6032016
:1049BC0010B5044608462170FFF770FC00236360B5
:1049CC00204610BD054B02221A60054B054A9A6021
:1049DC000020C3E90000FFF7F1BC00BFECE60320A8
:1049EC00E0E603200000FFFF024B1A68024B1A603E
:1049FC00704700BFA8E50320F0E603207047417420
:104A0C00704708B5007CFFF789FC20EAE07008BD10
:104A1C0008B5007CFFF75AFC20EAE07008BD08B529
:104A2C00007CFFF763FC40EAE07008BD08B5007C31
:104A3C00FFF754FC40EAE07008BD007CFFF75EBC59
:104A4C0037B5457C04462DB1207C03B0BDE8304021
:104A5C00FFF734BC007C0191FFF760FC0028019942
:104A6C00F2DC284603B030BD10B514210446FFF724
:104A7C0014FB204610BD000010B54FF47A730446A9
:104A8C00084611460022C4E90123044B236001238C
:104A9C0020746374FFF752FC204610BD68510B0064
:104AAC00007C0023FFF742BC0022FFF7F9BF4174E2
:104ABC0070477047704708B50021007CFFF766FC13
:104ACC0040EAE07008BD08B50121007CFFF75EFCF0
:104ADC0040EAE07008BD08B5007CFFF74FFC20EA07
:104AEC00E07008BD08B5007CFFF740FC20EAE070E0
:104AFC0008BD13B50446007C0191FFF73FFC00286C
:104B0C00019901DC607C20B1207CFFF747FC20EA96
:104B1C00E07002B010BD007CFFF748BC10B514214A
:104B2C000446FFF7BAFA204610BD000010B54FF44A
:104B3C007A73044608460021C4E90113044B236030
:104B4C000123207463741146FFF700FC204610BD4E
:104B5C0098510B00007C0022FFF700BC10B514220A
:104B6C000446002100F0E6F9204610BD10B50F4CAC
:104B7C0088B003A8FFF7F2FF2178BFF35B8F11F029
:104B8C0001010FD120460191FFF789FA019948B133
:104B9C0003AA0748FFF7CAFF2046FFF785FA054826
:104BAC0000F0B4F9024808B010BD00BFF4E60320D1
:104BBC00F8E60320BF4A0B00002240681146FFF7BD
:104BCC0041BC002240681146FFF75CBC00224068E3
:104BDC001146FFF767BC40680022FFF75BBC4068DA
:104BEC00002281F00101FFF745BC002340681A4602
:104BFC001946FFF737BC002340681A461946FFF7E1
:104C0C0029BC002240681146FFF70CBC406800220A
:104C1C000221FFF70FBC002340681A46FFF7FABBCE
:104C2C00024B04225A60024A1A6070470CE70320B8
:104C3C00C8510B00014B1860704700BFACE5032056
:104C4C0008B50B4B43B1FFF791FF03681B699847FD
:104C5C00002801DDAFF30080064B43B100F030F9C2
:104C6C0003681B699847002801DDAFF3008008BD7D
:104C7C00000000000000000008B5FFF7E1FFFFF79F
:104C8C009DFA014B186008BD28E703200548064A29
:104C9C00064908B5121A00F03FF9054B054A1A608F
:104CAC0008BD00BF00F4032004F4032024530B00C0
:104CBC0000F403201E1C279A07B5002300931A4604
:104CCC006FF07701FFF794FB03B05DF804FB000075
:104CDC0007B543880A2B08D0502B0BD1094B1B6806
:104CEC004BB103B05DF804EB1847FFF7E5FF03B0D9
:104CFC005DF804FB002300931A466FF07701FFF771
:104D0C0077FBF4E718E7032010B512480021FFF7F2
:104D1C00F9FB114B1A68114B9A42114B0CBF012233
:104D2C0000221A7001D0FFF7B1FFFFF73FFA0446DB
:104D3C0000F008F90B4B13B12046AFF300800021B3
:104D4C000848FFF75FFBBDE8104007480021FFF75C
:104D5C0045BB00BF414C0B0000F403201E1C279ADE
:104D6C0014E7032000000000DD4C0B00232813B5D2
:104D7C0002D9002002B010BDA0F10B03022B1AD8EF
:104D8C00174C2178BFF35B8F11F001010BD120463A
:104D9C000191FFF784F9019928B11248FFF708FE39
:104DAC002046FFF781F90F4B1878FFF77FFA0028A0
:104DBC00DFD10120DEE7012809D800F041F80021FD
:104DCC00007CFFF743FA80F00100C0B2D2E709384B
:104DDC000128EED800F074F8007CFFF797FAF2E7A0
:104DEC001CE7032020E70320232838B504460D4692
:104DFC000AD8FF2908D0FFF7B9FF28B12946204669
:104E0C00BDE83840FFF7E2B938BD704738B50A4BFA
:104E1C0003600123044643610849202000F074F824
:104E2C00202560600549A560284600F06DF8C4E9AE
:104E3C000305204638BD00BF18000100FC510B00D3
:104E4C0030B50E4D2978BFF35B8F11F0010487B09C
:104E5C0011D12846FFF723F968B16846FFF7D6FF52
:104E6C006A4621460648FFF7CBFB2846FFF71CF99C
:104E7C00044800F04BF8024807B030BD2CE7032083
:104E8C0030E70320174E0B007047000038B504467E
:104E9C0014252A46002100F04DF8258040250749AD
:104EAC0025812846258200F02FF8044960602846A9
:104EBC0000F02AF8E060204638BD00BFFC510B0022
:104ECC0030B50E4D2978BFF35B8F11F0010487B01C
:104EDC0011D12846FFF7E3F868B101A8FFF7D6FF18
:104EEC0001AA21460648FFF7C7FD2846FFF7DCF864
:104EFC00044800F00BF8024807B030BD44E703202B
:104F0C0048E70320954E0B00FFF7C5B80023014678
:104F1C001A46184600F044B80A44914200F1FF3397
:104F2C0000D1704710B511F8014B03F8014F9142B5
:104F3C00F9D110BD02440346934200D1704703F8E7
:104F4C00011BF9E738B5104B1D68AB6B0446B3B9C0
:104F5C001820FFF7BFFA0246A86320B90B4B0C4888
:104F6C004221FFF7C7FA0B490B4BC0E900130B4B5F
:104F7C0083600B23838100210120C2E90401AB6B08
:104F8C0000221C615A6138BDACE50320FD510B00B9
:104F9C0014520B000E33CDAB34126DE6ECDE050073
:104FAC002DE9F843DFF8B8800646D8F800001F4614
:104FBC000D46914600F056F8254B1C6834B9254C2B
:104FCC001C60254B13B11B68C4F8883063681F2B19
:104FDC0007DDD8F8000000F047F84FF0FF30BDE8CF
:104FEC00F8834EB3D4F8880088B91C4B23B9D8F891
:104FFC00000000F038F8F0E74FF48470FFF76AFA1D
:10500C000028F4D00023C0E94033C4F8880063685A
:10501C0040F8239001229A4000EB8301D0F8003134
:10502C001343C0F80031022EC1F8807002BFD0F8D3
:10503C0004311343C0F804316368D8F800005A1CDB
:10504C000233626044F8235000F00EF80020C6E7EB
:10505C00E8E703205CE7032000000000E1440B00BC
:10506C0010E6032070477047704700002D400B007E
:10507C0069400B0091400B0095400B0000000000B4
:10508C00000000000000000097450B008D450B0050
:10509C0083450B0079450B006D450B0061450B00FA
:1050AC00E1470B00E9470B0055450B004D450B0044
:1050BC0043450B0039450B0019480B00000000005C
:1050CC0000000000B5450B00FF450B00D7450B0059
:1050DC00B7450B00DF450B00E7450B00EF450B0018
:1050EC00F7450B000000000000000000B1460B006B
:1050FC00A1460B00A3460B0061707000000000007D
:10510C0000000000A1470B00AB470B00B5470B009C
:10511C00BF470B00C9470B00D5470B00E1470B00FD
:10512C00E9470B00F1470B00FD470B0005480B004E
:10513C000F480B0019480B0025592D256D2D2564A2
:10514C005425483A254D3A2553257A0061736374EA
:10515C00696D65000000000000000000094A0B00AA
:10516C00754A0B004D4A0B0005490B001D4A0B00FC
:10517C00394A0B002B4A0B00474A0B000B4A0B0019
:10518C000F4A0B000000000000000000C14A0B0099
:10519C00294B0B00FF4A0B0005490B00F14A0B0091
:1051AC00C34A0B00D34A0B00234B0B00E34A0B0002
:1051BC00BB4A0B000000000000000000234C0B0059
:1051CC00194C0B000F4C0B00C54B0B00034C0B0088
:1051DC00F74B0B00E1470B00E9470B00EB4B0B00C7
:1051EC00E34B0B00D94B0B00CF4B0B0019480B00BA
:1051FC00005245454E54206D616C6C6F6320737585
:10520C0063636565646564002F746D702F6A656EE9
:10521C006B696E732D4743432D31302D706970656A
:10522C006C696E652D34385F323032303131323446
:10523C005F313630363138303633392F7372632F55
:10524C006E65776C69622F6E65776C69622F6C691D
:10525C0062632F7374646C69622F72616E642E6367
:10526C000000000039410B0029450B00A1450B0043
:10527C0091470B00F1480B00B1490B00D1490B00D1
:08528C00F5490B002D4C0B004D
:10529400040000001400000003000000474E550005
:1052A40062945B54A3BBEA8D38D6CBAE8CD547371A
:0452B40082862D338E
:1052B80058510B00B0E5032000000000000000007A
:1052C80000000000000000000000000000000000D6
:1052D80000000000000000000000000000000000C6
:1052E80000000000000000000000000000000000B6
:1052F80000000000000000000000000000000000A6
:105308000000000000000000000000000000000095
:0C5318000000000000000000ECE7032093
:045324000000000085
:10532E0000000102030405060708090A0B0C0D0E06
:10533E000F101112131415161718191A1B1C1D1EF7
:04534E001F202800F4
:045352007856341243
:04000003B000401CED
:00000001FF
